{
  "contractName": "ERC721TD",
  "abi": [
    {
      "inputs": [
        {
          "internalType": "string",
          "name": "_name",
          "type": "string"
        },
        {
          "internalType": "string",
          "name": "_symbol",
          "type": "string"
        }
      ],
      "stateMutability": "nonpayable",
      "type": "constructor"
    },
    {
      "anonymous": false,
      "inputs": [
        {
          "indexed": true,
          "internalType": "address",
          "name": "owner",
          "type": "address"
        },
        {
          "indexed": true,
          "internalType": "address",
          "name": "approved",
          "type": "address"
        },
        {
          "indexed": true,
          "internalType": "uint256",
          "name": "tokenId",
          "type": "uint256"
        }
      ],
      "name": "Approval",
      "type": "event"
    },
    {
      "anonymous": false,
      "inputs": [
        {
          "indexed": true,
          "internalType": "address",
          "name": "owner",
          "type": "address"
        },
        {
          "indexed": true,
          "internalType": "address",
          "name": "operator",
          "type": "address"
        },
        {
          "indexed": false,
          "internalType": "bool",
          "name": "approved",
          "type": "bool"
        }
      ],
      "name": "ApprovalForAll",
      "type": "event"
    },
    {
      "anonymous": false,
      "inputs": [
        {
          "indexed": true,
          "internalType": "address",
          "name": "from",
          "type": "address"
        },
        {
          "indexed": true,
          "internalType": "address",
          "name": "to",
          "type": "address"
        },
        {
          "indexed": true,
          "internalType": "uint256",
          "name": "tokenId",
          "type": "uint256"
        }
      ],
      "name": "Transfer",
      "type": "event"
    },
    {
      "inputs": [
        {
          "internalType": "address",
          "name": "",
          "type": "address"
        }
      ],
      "name": "_breeders",
      "outputs": [
        {
          "internalType": "bool",
          "name": "",
          "type": "bool"
        }
      ],
      "stateMutability": "view",
      "type": "function"
    },
    {
      "inputs": [
        {
          "internalType": "uint256",
          "name": "",
          "type": "uint256"
        }
      ],
      "name": "_tokens",
      "outputs": [
        {
          "internalType": "uint256",
          "name": "id",
          "type": "uint256"
        },
        {
          "internalType": "string",
          "name": "name",
          "type": "string"
        },
        {
          "internalType": "bool",
          "name": "wings",
          "type": "bool"
        },
        {
          "internalType": "uint256",
          "name": "legs",
          "type": "uint256"
        },
        {
          "internalType": "uint256",
          "name": "sex",
          "type": "uint256"
        },
        {
          "internalType": "bool",
          "name": "isForSale",
          "type": "bool"
        },
        {
          "internalType": "uint256",
          "name": "price",
          "type": "uint256"
        },
        {
          "internalType": "uint256",
          "name": "parent1",
          "type": "uint256"
        },
        {
          "internalType": "uint256",
          "name": "parent2",
          "type": "uint256"
        },
        {
          "internalType": "bool",
          "name": "canReproduce",
          "type": "bool"
        },
        {
          "internalType": "uint256",
          "name": "reproductionPrice",
          "type": "uint256"
        },
        {
          "internalType": "address payable",
          "name": "authorizedUser",
          "type": "address"
        }
      ],
      "stateMutability": "view",
      "type": "function"
    },
    {
      "inputs": [
        {
          "internalType": "address",
          "name": "to",
          "type": "address"
        },
        {
          "internalType": "uint256",
          "name": "tokenId",
          "type": "uint256"
        }
      ],
      "name": "approve",
      "outputs": [],
      "stateMutability": "nonpayable",
      "type": "function"
    },
    {
      "inputs": [
        {
          "internalType": "address",
          "name": "owner",
          "type": "address"
        }
      ],
      "name": "balanceOf",
      "outputs": [
        {
          "internalType": "uint256",
          "name": "",
          "type": "uint256"
        }
      ],
      "stateMutability": "view",
      "type": "function"
    },
    {
      "inputs": [],
      "name": "baseURI",
      "outputs": [
        {
          "internalType": "string",
          "name": "",
          "type": "string"
        }
      ],
      "stateMutability": "view",
      "type": "function"
    },
    {
      "inputs": [
        {
          "internalType": "uint256",
          "name": "tokenId",
          "type": "uint256"
        }
      ],
      "name": "getApproved",
      "outputs": [
        {
          "internalType": "address",
          "name": "",
          "type": "address"
        }
      ],
      "stateMutability": "view",
      "type": "function"
    },
    {
      "inputs": [
        {
          "internalType": "address",
          "name": "owner",
          "type": "address"
        },
        {
          "internalType": "address",
          "name": "operator",
          "type": "address"
        }
      ],
      "name": "isApprovedForAll",
      "outputs": [
        {
          "internalType": "bool",
          "name": "",
          "type": "bool"
        }
      ],
      "stateMutability": "view",
      "type": "function"
    },
    {
      "inputs": [],
      "name": "name",
      "outputs": [
        {
          "internalType": "string",
          "name": "",
          "type": "string"
        }
      ],
      "stateMutability": "view",
      "type": "function"
    },
    {
      "inputs": [
        {
          "internalType": "uint256",
          "name": "tokenId",
          "type": "uint256"
        }
      ],
      "name": "ownerOf",
      "outputs": [
        {
          "internalType": "address",
          "name": "",
          "type": "address"
        }
      ],
      "stateMutability": "view",
      "type": "function"
    },
    {
      "inputs": [
        {
          "internalType": "address",
          "name": "from",
          "type": "address"
        },
        {
          "internalType": "address",
          "name": "to",
          "type": "address"
        },
        {
          "internalType": "uint256",
          "name": "tokenId",
          "type": "uint256"
        }
      ],
      "name": "safeTransferFrom",
      "outputs": [],
      "stateMutability": "nonpayable",
      "type": "function"
    },
    {
      "inputs": [
        {
          "internalType": "address",
          "name": "from",
          "type": "address"
        },
        {
          "internalType": "address",
          "name": "to",
          "type": "address"
        },
        {
          "internalType": "uint256",
          "name": "tokenId",
          "type": "uint256"
        },
        {
          "internalType": "bytes",
          "name": "_data",
          "type": "bytes"
        }
      ],
      "name": "safeTransferFrom",
      "outputs": [],
      "stateMutability": "nonpayable",
      "type": "function"
    },
    {
      "inputs": [
        {
          "internalType": "address",
          "name": "operator",
          "type": "address"
        },
        {
          "internalType": "bool",
          "name": "approved",
          "type": "bool"
        }
      ],
      "name": "setApprovalForAll",
      "outputs": [],
      "stateMutability": "nonpayable",
      "type": "function"
    },
    {
      "inputs": [
        {
          "internalType": "bytes4",
          "name": "interfaceId",
          "type": "bytes4"
        }
      ],
      "name": "supportsInterface",
      "outputs": [
        {
          "internalType": "bool",
          "name": "",
          "type": "bool"
        }
      ],
      "stateMutability": "view",
      "type": "function"
    },
    {
      "inputs": [],
      "name": "symbol",
      "outputs": [
        {
          "internalType": "string",
          "name": "",
          "type": "string"
        }
      ],
      "stateMutability": "view",
      "type": "function"
    },
    {
      "inputs": [
        {
          "internalType": "uint256",
          "name": "index",
          "type": "uint256"
        }
      ],
      "name": "tokenByIndex",
      "outputs": [
        {
          "internalType": "uint256",
          "name": "",
          "type": "uint256"
        }
      ],
      "stateMutability": "view",
      "type": "function"
    },
    {
      "inputs": [
        {
          "internalType": "address",
          "name": "owner",
          "type": "address"
        },
        {
          "internalType": "uint256",
          "name": "index",
          "type": "uint256"
        }
      ],
      "name": "tokenOfOwnerByIndex",
      "outputs": [
        {
          "internalType": "uint256",
          "name": "",
          "type": "uint256"
        }
      ],
      "stateMutability": "view",
      "type": "function"
    },
    {
      "inputs": [
        {
          "internalType": "uint256",
          "name": "tokenId",
          "type": "uint256"
        }
      ],
      "name": "tokenURI",
      "outputs": [
        {
          "internalType": "string",
          "name": "",
          "type": "string"
        }
      ],
      "stateMutability": "view",
      "type": "function"
    },
    {
      "inputs": [],
      "name": "totalSupply",
      "outputs": [
        {
          "internalType": "uint256",
          "name": "",
          "type": "uint256"
        }
      ],
      "stateMutability": "view",
      "type": "function"
    },
    {
      "inputs": [
        {
          "internalType": "address",
          "name": "from",
          "type": "address"
        },
        {
          "internalType": "address",
          "name": "to",
          "type": "address"
        },
        {
          "internalType": "uint256",
          "name": "tokenId",
          "type": "uint256"
        }
      ],
      "name": "transferFrom",
      "outputs": [],
      "stateMutability": "nonpayable",
      "type": "function"
    },
    {
      "inputs": [
        {
          "internalType": "address",
          "name": "account",
          "type": "address"
        }
      ],
      "name": "isBreeder",
      "outputs": [
        {
          "internalType": "bool",
          "name": "",
          "type": "bool"
        }
      ],
      "stateMutability": "view",
      "type": "function"
    },
    {
      "inputs": [],
      "name": "registrationPrice",
      "outputs": [
        {
          "internalType": "uint256",
          "name": "",
          "type": "uint256"
        }
      ],
      "stateMutability": "view",
      "type": "function"
    },
    {
      "inputs": [],
      "name": "registerMeAsBreeder",
      "outputs": [],
      "stateMutability": "payable",
      "type": "function"
    },
    {
      "inputs": [
        {
          "internalType": "address",
          "name": "breeder",
          "type": "address"
        }
      ],
      "name": "registerExtraBreeder",
      "outputs": [],
      "stateMutability": "nonpayable",
      "type": "function"
    },
    {
      "inputs": [
        {
          "internalType": "uint256",
          "name": "sex",
          "type": "uint256"
        },
        {
          "internalType": "uint256",
          "name": "legs",
          "type": "uint256"
        },
        {
          "internalType": "bool",
          "name": "wings",
          "type": "bool"
        },
        {
          "internalType": "string",
          "name": "name",
          "type": "string"
        }
      ],
      "name": "declareAnimal",
      "outputs": [
        {
          "internalType": "uint256",
          "name": "",
          "type": "uint256"
        }
      ],
      "stateMutability": "nonpayable",
      "type": "function"
    },
    {
      "inputs": [
        {
          "internalType": "uint256",
          "name": "animalNumber",
          "type": "uint256"
        }
      ],
      "name": "getAnimalCharacteristics",
      "outputs": [
        {
          "internalType": "string",
          "name": "_name",
          "type": "string"
        },
        {
          "internalType": "bool",
          "name": "_wings",
          "type": "bool"
        },
        {
          "internalType": "uint256",
          "name": "_legs",
          "type": "uint256"
        },
        {
          "internalType": "uint256",
          "name": "_sex",
          "type": "uint256"
        }
      ],
      "stateMutability": "view",
      "type": "function"
    },
    {
      "inputs": [
        {
          "internalType": "uint256",
          "name": "animalNumber",
          "type": "uint256"
        }
      ],
      "name": "declareDeadAnimal",
      "outputs": [],
      "stateMutability": "nonpayable",
      "type": "function"
    },
    {
      "inputs": [
        {
          "internalType": "uint256",
          "name": "animalNumber",
          "type": "uint256"
        }
      ],
      "name": "isAnimalForSale",
      "outputs": [
        {
          "internalType": "bool",
          "name": "",
          "type": "bool"
        }
      ],
      "stateMutability": "view",
      "type": "function"
    },
    {
      "inputs": [
        {
          "internalType": "uint256",
          "name": "animalNumber",
          "type": "uint256"
        }
      ],
      "name": "animalPrice",
      "outputs": [
        {
          "internalType": "uint256",
          "name": "",
          "type": "uint256"
        }
      ],
      "stateMutability": "view",
      "type": "function"
    },
    {
      "inputs": [
        {
          "internalType": "uint256",
          "name": "animalNumber",
          "type": "uint256"
        }
      ],
      "name": "buyAnimal",
      "outputs": [],
      "stateMutability": "payable",
      "type": "function"
    },
    {
      "inputs": [
        {
          "internalType": "uint256",
          "name": "animalNumber",
          "type": "uint256"
        },
        {
          "internalType": "uint256",
          "name": "price",
          "type": "uint256"
        }
      ],
      "name": "offerForSale",
      "outputs": [],
      "stateMutability": "nonpayable",
      "type": "function"
    },
    {
      "inputs": [],
      "name": "lastMintedToken",
      "outputs": [
        {
          "internalType": "uint256",
          "name": "",
          "type": "uint256"
        }
      ],
      "stateMutability": "view",
      "type": "function"
    },
    {
      "inputs": [
        {
          "internalType": "uint256",
          "name": "sex",
          "type": "uint256"
        },
        {
          "internalType": "uint256",
          "name": "legs",
          "type": "uint256"
        },
        {
          "internalType": "bool",
          "name": "wings",
          "type": "bool"
        },
        {
          "internalType": "string",
          "name": "name",
          "type": "string"
        },
        {
          "internalType": "uint256",
          "name": "parent1",
          "type": "uint256"
        },
        {
          "internalType": "uint256",
          "name": "parent2",
          "type": "uint256"
        }
      ],
      "name": "declareAnimalWithParents",
      "outputs": [
        {
          "internalType": "uint256",
          "name": "",
          "type": "uint256"
        }
      ],
      "stateMutability": "nonpayable",
      "type": "function"
    },
    {
      "inputs": [
        {
          "internalType": "uint256",
          "name": "animalNumber",
          "type": "uint256"
        }
      ],
      "name": "getParents",
      "outputs": [
        {
          "internalType": "uint256",
          "name": "",
          "type": "uint256"
        },
        {
          "internalType": "uint256",
          "name": "",
          "type": "uint256"
        }
      ],
      "stateMutability": "view",
      "type": "function"
    },
    {
      "inputs": [
        {
          "internalType": "uint256",
          "name": "animalNumber",
          "type": "uint256"
        }
      ],
      "name": "canReproduce",
      "outputs": [
        {
          "internalType": "bool",
          "name": "",
          "type": "bool"
        }
      ],
      "stateMutability": "view",
      "type": "function"
    },
    {
      "inputs": [
        {
          "internalType": "uint256",
          "name": "animalNumber",
          "type": "uint256"
        }
      ],
      "name": "reproductionPrice",
      "outputs": [
        {
          "internalType": "uint256",
          "name": "",
          "type": "uint256"
        }
      ],
      "stateMutability": "view",
      "type": "function"
    },
    {
      "inputs": [
        {
          "internalType": "uint256",
          "name": "animalNumber",
          "type": "uint256"
        },
        {
          "internalType": "uint256",
          "name": "priceOfReproduction",
          "type": "uint256"
        }
      ],
      "name": "offerForReproduction",
      "outputs": [
        {
          "internalType": "uint256",
          "name": "",
          "type": "uint256"
        }
      ],
      "stateMutability": "nonpayable",
      "type": "function"
    },
    {
      "inputs": [
        {
          "internalType": "uint256",
          "name": "animalNumber",
          "type": "uint256"
        }
      ],
      "name": "authorizedBreederToReproduce",
      "outputs": [
        {
          "internalType": "address",
          "name": "",
          "type": "address"
        }
      ],
      "stateMutability": "view",
      "type": "function"
    },
    {
      "inputs": [
        {
          "internalType": "uint256",
          "name": "animalNumber",
          "type": "uint256"
        },
        {
          "internalType": "address payable",
          "name": "breeder",
          "type": "address"
        }
      ],
      "name": "authorizedExtraBreederToReproduce",
      "outputs": [],
      "stateMutability": "nonpayable",
      "type": "function"
    },
    {
      "inputs": [
        {
          "internalType": "uint256",
          "name": "animalNumber",
          "type": "uint256"
        }
      ],
      "name": "payForReproduction",
      "outputs": [],
      "stateMutability": "payable",
      "type": "function"
    }
  ],
  "bytecode": "0x60806040523480156200001157600080fd5b5060405162005b5638038062005b56833981810160405260408110156200003757600080fd5b81019080805160405193929190846401000000008211156200005857600080fd5b838201915060208201858111156200006f57600080fd5b82518660018202830111640100000000821117156200008d57600080fd5b8083526020830192505050908051906020019080838360005b83811015620000c3578082015181840152602081019050620000a6565b50505050905090810190601f168015620000f15780820380516001836020036101000a031916815260200191505b50604052602001805160405193929190846401000000008211156200011557600080fd5b838201915060208201858111156200012c57600080fd5b82518660018202830111640100000000821117156200014a57600080fd5b8083526020830192505050908051906020019080838360005b838110156200018057808201518184015260208101905062000163565b50505050905090810190601f168015620001ae5780820380516001836020036101000a031916815260200191505b506040525050508181620001cf6301ffc9a760e01b6200032560201b60201c565b8160069080519060200190620001e79291906200042e565b508060079080519060200190620002009291906200042e565b50620002196380ac58cd60e01b6200032560201b60201c565b62000231635b5e139f60e01b6200032560201b60201c565b6200024963780e9d6360e01b6200032560201b60201c565b50506000600a8190555067016345785d8a0000600b8190555033600c60006101000a81548173ffffffffffffffffffffffffffffffffffffffff021916908373ffffffffffffffffffffffffffffffffffffffff1602179055506001600e6000600c60009054906101000a900473ffffffffffffffffffffffffffffffffffffffff1673ffffffffffffffffffffffffffffffffffffffff1673ffffffffffffffffffffffffffffffffffffffff16815260200190815260200160002060006101000a81548160ff0219169083151502179055505050620004dd565b63ffffffff60e01b817bffffffffffffffffffffffffffffffffffffffffffffffffffffffff19161415620003c2576040517f08c379a000000000000000000000000000000000000000000000000000000000815260040180806020018281038252601c8152602001807f4552433136353a20696e76616c696420696e746572666163652069640000000081525060200191505060405180910390fd5b6001600080837bffffffffffffffffffffffffffffffffffffffffffffffffffffffff19167bffffffffffffffffffffffffffffffffffffffffffffffffffffffff1916815260200190815260200160002060006101000a81548160ff02191690831515021790555050565b828054600181600116156101000203166002900490600052602060002090601f016020900481019282601f106200047157805160ff1916838001178555620004a2565b82800160010185558215620004a2579182015b82811115620004a157825182559160200191906001019062000484565b5b509050620004b19190620004b5565b5090565b620004da91905b80821115620004d6576000816000905550600101620004bc565b5090565b90565b61566980620004ed6000396000f3fe6080604052600436106102305760003560e01c80636352211e1161012e578063b75e0750116100ab578063e985e9c51161006f578063e985e9c5146110f8578063ec52d43214611181578063ec897772146111ac578063ed70554d146111e7578063ff36ed981461132057610230565b8063b75e075014610da9578063b88d4fde14610e76578063c5f51f7314610f88578063c7b9cb0b14610fdb578063c87b56dd1461104457610230565b8063929c13e3116100f2578063929c13e314610b2c57806395d89b4114610bfa578063a0c32c8f14610c8a578063a1151bfd14610ce3578063a22cb46514610d4c57610230565b80636352211e1461091c57806368740e65146109975780636c0360eb146109f257806370a0823114610a8257806377386df314610ae757610230565b8063242a0087116101bc5780633573dbd1116101805780633573dbd1146107a657806341d30bae146107f557806342842e0e146107ff5780634abda8c81461087a5780634f6ccce7146108cd57610230565b8063242a00871461055d57806327aa8f31146105b35780632a4672b21461062e5780632f745c591461067d57806332b0f376146106ec57610230565b806318160ddd1161020357806318160ddd1461040d5780631a14e94a14610438578063216586581461046657806323b872dd1461049157806323d1238e1461050c57610230565b806301ffc9a71461023557806306fdde03146102a7578063081812fc14610337578063095ea7b3146103b2575b600080fd5b34801561024157600080fd5b5061028d6004803603602081101561025857600080fd5b8101908080357bffffffffffffffffffffffffffffffffffffffffffffffffffffffff1916906020019092919050505061134e565b604051808215151515815260200191505060405180910390f35b3480156102b357600080fd5b506102bc6113b5565b6040518080602001828103825283818151815260200191508051906020019080838360005b838110156102fc5780820151818401526020810190506102e1565b50505050905090810190601f1680156103295780820380516001836020036101000a031916815260200191505b509250505060405180910390f35b34801561034357600080fd5b506103706004803603602081101561035a57600080fd5b8101908080359060200190929190505050611457565b604051808273ffffffffffffffffffffffffffffffffffffffff1673ffffffffffffffffffffffffffffffffffffffff16815260200191505060405180910390f35b3480156103be57600080fd5b5061040b600480360360408110156103d557600080fd5b81019080803573ffffffffffffffffffffffffffffffffffffffff169060200190929190803590602001909291905050506114f2565b005b34801561041957600080fd5b50610422611636565b6040518082815260200191505060405180910390f35b6104646004803603602081101561044e57600080fd5b8101908080359060200190929190505050611647565b005b34801561047257600080fd5b5061047b6119cf565b6040518082815260200191505060405180910390f35b34801561049d57600080fd5b5061050a600480360360608110156104b457600080fd5b81019080803573ffffffffffffffffffffffffffffffffffffffff169060200190929190803573ffffffffffffffffffffffffffffffffffffffff169060200190929190803590602001909291905050506119d9565b005b34801561051857600080fd5b5061055b6004803603602081101561052f57600080fd5b81019080803573ffffffffffffffffffffffffffffffffffffffff169060200190929190505050611a4f565b005b34801561056957600080fd5b506105966004803603602081101561058057600080fd5b8101908080359060200190929190505050611b6d565b604051808381526020018281526020019250505060405180910390f35b3480156105bf57600080fd5b506105ec600480360360208110156105d657600080fd5b8101908080359060200190929190505050611d3d565b604051808273ffffffffffffffffffffffffffffffffffffffff1673ffffffffffffffffffffffffffffffffffffffff16815260200191505060405180910390f35b34801561063a57600080fd5b506106676004803603602081101561065157600080fd5b8101908080359060200190929190505050611d7d565b6040518082815260200191505060405180910390f35b34801561068957600080fd5b506106d6600480360360408110156106a057600080fd5b81019080803573ffffffffffffffffffffffffffffffffffffffff16906020019092919080359060200190929190505050611d9d565b6040518082815260200191505060405180910390f35b3480156106f857600080fd5b506107906004803603608081101561070f57600080fd5b8101908080359060200190929190803590602001909291908035151590602001909291908035906020019064010000000081111561074c57600080fd5b82018360208201111561075e57600080fd5b8035906020019184600183028401116401000000008311171561078057600080fd5b9091929391929390505050611df8565b6040518082815260200191505060405180910390f35b3480156107b257600080fd5b506107df600480360360208110156107c957600080fd5b81019080803590602001909291905050506120d2565b6040518082815260200191505060405180910390f35b6107fd6120f2565b005b34801561080b57600080fd5b506108786004803603606081101561082257600080fd5b81019080803573ffffffffffffffffffffffffffffffffffffffff169060200190929190803573ffffffffffffffffffffffffffffffffffffffff169060200190929190803590602001909291905050506121c3565b005b34801561088657600080fd5b506108b36004803603602081101561089d57600080fd5b81019080803590602001909291905050506121e3565b604051808215151515815260200191505060405180910390f35b3480156108d957600080fd5b50610906600480360360208110156108f057600080fd5b8101908080359060200190929190505050612210565b6040518082815260200191505060405180910390f35b34801561092857600080fd5b506109556004803603602081101561093f57600080fd5b8101908080359060200190929190505050612233565b604051808273ffffffffffffffffffffffffffffffffffffffff1673ffffffffffffffffffffffffffffffffffffffff16815260200191505060405180910390f35b3480156109a357600080fd5b506109f0600480360360408110156109ba57600080fd5b8101908080359060200190929190803573ffffffffffffffffffffffffffffffffffffffff16906020019092919050505061226a565b005b3480156109fe57600080fd5b50610a07612386565b6040518080602001828103825283818151815260200191508051906020019080838360005b83811015610a47578082015181840152602081019050610a2c565b50505050905090810190601f168015610a745780820380516001836020036101000a031916815260200191505b509250505060405180910390f35b348015610a8e57600080fd5b50610ad160048036036020811015610aa557600080fd5b81019080803573ffffffffffffffffffffffffffffffffffffffff169060200190929190505050612428565b6040518082815260200191505060405180910390f35b348015610af357600080fd5b50610b2a60048036036040811015610b0a57600080fd5b8101908080359060200190929190803590602001909291905050506124fd565b005b348015610b3857600080fd5b50610be4600480360360c0811015610b4f57600080fd5b81019080803590602001909291908035906020019092919080351515906020019092919080359060200190640100000000811115610b8c57600080fd5b820183602082011115610b9e57600080fd5b80359060200191846001830284011164010000000083111715610bc057600080fd5b909192939192939080359060200190929190803590602001909291905050506125f6565b6040518082815260200191505060405180910390f35b348015610c0657600080fd5b50610c0f612ba8565b6040518080602001828103825283818151815260200191508051906020019080838360005b83811015610c4f578082015181840152602081019050610c34565b50505050905090810190601f168015610c7c5780820380516001836020036101000a031916815260200191505b509250505060405180910390f35b348015610c9657600080fd5b50610ccd60048036036040811015610cad57600080fd5b810190808035906020019092919080359060200190929190505050612c4a565b6040518082815260200191505060405180910390f35b348015610cef57600080fd5b50610d3260048036036020811015610d0657600080fd5b81019080803573ffffffffffffffffffffffffffffffffffffffff169060200190929190505050612d57565b604051808215151515815260200191505060405180910390f35b348015610d5857600080fd5b50610da760048036036040811015610d6f57600080fd5b81019080803573ffffffffffffffffffffffffffffffffffffffff169060200190929190803515159060200190929190505050612d77565b005b348015610db557600080fd5b50610de260048036036020811015610dcc57600080fd5b8101908080359060200190929190505050612f2f565b604051808060200185151515158152602001848152602001838152602001828103825286818151815260200191508051906020019080838360005b83811015610e38578082015181840152602081019050610e1d565b50505050905090810190601f168015610e655780820380516001836020036101000a031916815260200191505b509550505050505060405180910390f35b348015610e8257600080fd5b50610f8660048036036080811015610e9957600080fd5b81019080803573ffffffffffffffffffffffffffffffffffffffff169060200190929190803573ffffffffffffffffffffffffffffffffffffffff1690602001909291908035906020019092919080359060200190640100000000811115610f0057600080fd5b820183602082011115610f1257600080fd5b80359060200191846001830284011164010000000083111715610f3457600080fd5b91908080601f016020809104026020016040519081016040528093929190818152602001838380828437600081840152601f19601f820116905080830192505050505050509192919290505050613203565b005b348015610f9457600080fd5b50610fc160048036036020811015610fab57600080fd5b810190808035906020019092919050505061327b565b604051808215151515815260200191505060405180910390f35b348015610fe757600080fd5b5061102a60048036036020811015610ffe57600080fd5b81019080803573ffffffffffffffffffffffffffffffffffffffff1690602001909291905050506132a8565b604051808215151515815260200191505060405180910390f35b34801561105057600080fd5b5061107d6004803603602081101561106757600080fd5b81019080803590602001909291905050506132fe565b6040518080602001828103825283818151815260200191508051906020019080838360005b838110156110bd5780820151818401526020810190506110a2565b50505050905090810190601f1680156110ea5780820380516001836020036101000a031916815260200191505b509250505060405180910390f35b34801561110457600080fd5b506111676004803603604081101561111b57600080fd5b81019080803573ffffffffffffffffffffffffffffffffffffffff169060200190929190803573ffffffffffffffffffffffffffffffffffffffff1690602001909291905050506135cf565b604051808215151515815260200191505060405180910390f35b34801561118d57600080fd5b50611196613663565b6040518082815260200191505060405180910390f35b3480156111b857600080fd5b506111e5600480360360208110156111cf57600080fd5b810190808035906020019092919050505061366d565b005b3480156111f357600080fd5b506112206004803603602081101561120a57600080fd5b81019080803590602001909291905050506137e5565b604051808d8152602001806020018c1515151581526020018b81526020018a815260200189151515158152602001888152602001878152602001868152602001851515151581526020018481526020018373ffffffffffffffffffffffffffffffffffffffff1673ffffffffffffffffffffffffffffffffffffffff16815260200182810382528d818151815260200191508051906020019080838360005b838110156112da5780820151818401526020810190506112bf565b50505050905090810190601f1680156113075780820380516001836020036101000a031916815260200191505b509d505050505050505050505050505060405180910390f35b61134c6004803603602081101561133657600080fd5b8101908080359060200190929190505050613924565b005b6000806000837bffffffffffffffffffffffffffffffffffffffffffffffffffffffff19167bffffffffffffffffffffffffffffffffffffffffffffffffffffffff1916815260200190815260200160002060009054906101000a900460ff169050919050565b606060068054600181600116156101000203166002900480601f01602080910402602001604051908101604052809291908181526020018280546001816001161561010002031660029004801561144d5780601f106114225761010080835404028352916020019161144d565b820191906000526020600020905b81548152906001019060200180831161143057829003601f168201915b5050505050905090565b600061146282613db7565b6114b7576040517f08c379a000000000000000000000000000000000000000000000000000000000815260040180806020018281038252602c81526020018061555e602c913960400191505060405180910390fd5b6004600083815260200190815260200160002060009054906101000a900473ffffffffffffffffffffffffffffffffffffffff169050919050565b60006114fd82612233565b90508073ffffffffffffffffffffffffffffffffffffffff168373ffffffffffffffffffffffffffffffffffffffff161415611584576040517f08c379a00000000000000000000000000000000000000000000000000000000081526004018080602001828103825260218152602001806155e26021913960400191505060405180910390fd5b8073ffffffffffffffffffffffffffffffffffffffff166115a3613dd4565b73ffffffffffffffffffffffffffffffffffffffff1614806115d257506115d1816115cc613dd4565b6135cf565b5b611627576040517f08c379a00000000000000000000000000000000000000000000000000000000081526004018080602001828103825260388152602001806154b16038913960400191505060405180910390fd5b6116318383613ddc565b505050565b60006116426002613e95565b905090565b61164f61527c565b600d60008381526020019081526020016000206040518061018001604052908160008201548152602001600182018054600181600116156101000203166002900480601f0160208091040260200160405190810160405280929190818152602001828054600181600116156101000203166002900480156117115780601f106116e657610100808354040283529160200191611711565b820191906000526020600020905b8154815290600101906020018083116116f457829003601f168201915b505050505081526020016002820160009054906101000a900460ff1615151515815260200160038201548152602001600482015481526020016005820160009054906101000a900460ff161515151581526020016006820154815260200160078201548152602001600882015481526020016009820160009054906101000a900460ff16151515158152602001600a8201548152602001600b820160009054906101000a900473ffffffffffffffffffffffffffffffffffffffff1673ffffffffffffffffffffffffffffffffffffffff1673ffffffffffffffffffffffffffffffffffffffff168152505090508060a00151611876576040517f08c379a00000000000000000000000000000000000000000000000000000000081526004018080602001828103825260168152602001807f416e696d616c206973206e6f7420666f722073616c650000000000000000000081525060200191505060405180910390fd5b8060c00151341461188657600080fd5b600061189183612233565b9050600060608273ffffffffffffffffffffffffffffffffffffffff163460405180600001905060006040518083038185875af1925050503d80600081146118f5576040519150601f19603f3d011682016040523d82523d6000602084013e6118fa565b606091505b509150915081611972576040517f08c379a00000000000000000000000000000000000000000000000000000000081526004018080602001828103825260188152602001807f4661696c656420746f207472616e73666572204574686572000000000000000081525060200191505060405180910390fd5b61197d833387613eaa565b6000600d600087815260200190815260200160002060050160006101000a81548160ff0219169083151502179055506000600d6000878152602001908152602001600020600601819055505050505050565b6000600b54905090565b6119ea6119e4613dd4565b826140ed565b611a3f576040517f08c379a00000000000000000000000000000000000000000000000000000000081526004018080602001828103825260318152602001806156036031913960400191505060405180910390fd5b611a4a838383613eaa565b505050565b3373ffffffffffffffffffffffffffffffffffffffff16600c60009054906101000a900473ffffffffffffffffffffffffffffffffffffffff1673ffffffffffffffffffffffffffffffffffffffff1614611b12576040517f08c379a00000000000000000000000000000000000000000000000000000000081526004018080602001828103825260178152602001807f4f6e6c792074686520636f6e7472616374206f776e657200000000000000000081525060200191505060405180910390fd5b6001600e60008373ffffffffffffffffffffffffffffffffffffffff1673ffffffffffffffffffffffffffffffffffffffff16815260200190815260200160002060006101000a81548160ff02191690831515021790555050565b600080611b7861527c565b600d60008581526020019081526020016000206040518061018001604052908160008201548152602001600182018054600181600116156101000203166002900480601f016020809104026020016040519081016040528092919081815260200182805460018160011615610100020316600290048015611c3a5780601f10611c0f57610100808354040283529160200191611c3a565b820191906000526020600020905b815481529060010190602001808311611c1d57829003601f168201915b505050505081526020016002820160009054906101000a900460ff1615151515815260200160038201548152602001600482015481526020016005820160009054906101000a900460ff161515151581526020016006820154815260200160078201548152602001600882015481526020016009820160009054906101000a900460ff16151515158152602001600a8201548152602001600b820160009054906101000a900473ffffffffffffffffffffffffffffffffffffffff1673ffffffffffffffffffffffffffffffffffffffff1673ffffffffffffffffffffffffffffffffffffffff168152505090508060e001518161010001519250925050915091565b6000600d6000838152602001908152602001600020600b0160009054906101000a900473ffffffffffffffffffffffffffffffffffffffff169050919050565b6000600d6000838152602001908152602001600020600a01549050919050565b6000611df082600160008673ffffffffffffffffffffffffffffffffffffffff1673ffffffffffffffffffffffffffffffffffffffff1681526020019081526020016000206141e190919063ffffffff16565b905092915050565b6000600e60003373ffffffffffffffffffffffffffffffffffffffff1673ffffffffffffffffffffffffffffffffffffffff16815260200190815260200160002060009054906101000a900460ff16611eb9576040517f08c379a000000000000000000000000000000000000000000000000000000000815260040180806020018281038252600e8152602001807f4f6e6c792061206272656564657200000000000000000000000000000000000081525060200191505060405180910390fd5b600a60008154809291906001019190505550611ed733600a546141fb565b611edf61527c565b604051806101800160405280600a54815260200185858080601f016020809104026020016040519081016040528093929190818152602001838380828437600081840152601f19601f820116905080830192505050505050508152602001861515815260200187815260200188815260200160001515815260200160008152602001600081526020016000815260200160001515815260200160008152602001600073ffffffffffffffffffffffffffffffffffffffff16815250905080600d6000600a548152602001908152602001600020600082015181600001556020820151816001019080519060200190611fd89291906152f9565b5060408201518160020160006101000a81548160ff021916908315150217905550606082015181600301556080820151816004015560a08201518160050160006101000a81548160ff02191690831515021790555060c0820151816006015560e0820151816007015561010082015181600801556101208201518160090160006101000a81548160ff02191690831515021790555061014082015181600a015561016082015181600b0160006101000a81548173ffffffffffffffffffffffffffffffffffffffff021916908373ffffffffffffffffffffffffffffffffffffffff160217905550905050600a5491505095945050505050565b6000600d6000838152602001908152602001600020600601549050919050565b600b543414612169576040517f08c379a000000000000000000000000000000000000000000000000000000000815260040180806020018281038252601e8152602001807f57726f6e6720616d6f756e7420746f206265636f6d652062726565646572000081525060200191505060405180910390fd5b6001600e60003373ffffffffffffffffffffffffffffffffffffffff1673ffffffffffffffffffffffffffffffffffffffff16815260200190815260200160002060006101000a81548160ff021916908315150217905550565b6121de83838360405180602001604052806000815250613203565b505050565b6000600d600083815260200190815260200160002060090160009054906101000a900460ff169050919050565b6000806122278360026143ef90919063ffffffff16565b50905080915050919050565b60006122638260405180606001604052806029815260200161551360299139600261441e9092919063ffffffff16565b9050919050565b3373ffffffffffffffffffffffffffffffffffffffff16600c60009054906101000a900473ffffffffffffffffffffffffffffffffffffffff1673ffffffffffffffffffffffffffffffffffffffff161461232d576040517f08c379a00000000000000000000000000000000000000000000000000000000081526004018080602001828103825260178152602001807f4f6e6c792074686520636f6e7472616374206f776e657200000000000000000081525060200191505060405180910390fd5b80600d6000848152602001908152602001600020600b0160006101000a81548173ffffffffffffffffffffffffffffffffffffffff021916908373ffffffffffffffffffffffffffffffffffffffff1602179055505050565b606060098054600181600116156101000203166002900480601f01602080910402602001604051908101604052809291908181526020018280546001816001161561010002031660029004801561241e5780601f106123f35761010080835404028352916020019161241e565b820191906000526020600020905b81548152906001019060200180831161240157829003601f168201915b5050505050905090565b60008073ffffffffffffffffffffffffffffffffffffffff168273ffffffffffffffffffffffffffffffffffffffff1614156124af576040517f08c379a000000000000000000000000000000000000000000000000000000000815260040180806020018281038252602a8152602001806154e9602a913960400191505060405180910390fd5b6124f6600160008473ffffffffffffffffffffffffffffffffffffffff1673ffffffffffffffffffffffffffffffffffffffff16815260200190815260200160002061443d565b9050919050565b813373ffffffffffffffffffffffffffffffffffffffff1661251e82612233565b73ffffffffffffffffffffffffffffffffffffffff16146125a7576040517f08c379a00000000000000000000000000000000000000000000000000000000081526004018080602001828103825260158152602001807f4f6e6c792074686520616e696d616c206f776e6572000000000000000000000081525060200191505060405180910390fd5b6001600d600085815260200190815260200160002060050160006101000a81548160ff02191690831515021790555081600d600085815260200190815260200160002060060181905550505050565b6000600e60003373ffffffffffffffffffffffffffffffffffffffff1673ffffffffffffffffffffffffffffffffffffffff16815260200190815260200160002060009054906101000a900460ff166126b7576040517f08c379a000000000000000000000000000000000000000000000000000000000815260040180806020018281038252600e8152602001807f4f6e6c792061206272656564657200000000000000000000000000000000000081525060200191505060405180910390fd5b3073ffffffffffffffffffffffffffffffffffffffff166327aa8f31836040518263ffffffff1660e01b81526004018082815260200191505060206040518083038186803b15801561270857600080fd5b505afa15801561271c573d6000803e3d6000fd5b505050506040513d602081101561273257600080fd5b810190808051906020019092919050505073ffffffffffffffffffffffffffffffffffffffff163373ffffffffffffffffffffffffffffffffffffffff16146127e3576040517f08c379a000000000000000000000000000000000000000000000000000000000815260040180806020018281038252601d8152602001807f55736572206e6f7420616c6c6f77656420746f20726570726f6475636500000081525060200191505060405180910390fd5b600073ffffffffffffffffffffffffffffffffffffffff1661280484612233565b73ffffffffffffffffffffffffffffffffffffffff16141561288e576040517f08c379a00000000000000000000000000000000000000000000000000000000081526004018080602001828103825260118152602001807f506172656e742031206e6f20657869737400000000000000000000000000000081525060200191505060405180910390fd5b600073ffffffffffffffffffffffffffffffffffffffff166128af83612233565b73ffffffffffffffffffffffffffffffffffffffff161415612939576040517f08c379a00000000000000000000000000000000000000000000000000000000081526004018080602001828103825260118152602001807f506172656e742032206e6f20657869737400000000000000000000000000000081525060200191505060405180910390fd5b600a6000815480929190600101919050555061295733600a546141fb565b61295f61527c565b604051806101800160405280600a54815260200187878080601f016020809104026020016040519081016040528093929190818152602001838380828437600081840152601f19601f82011690508083019250505050505050815260200188151581526020018981526020018a81526020016000151581526020016000815260200185815260200184815260200160001515815260200160008152602001600073ffffffffffffffffffffffffffffffffffffffff16815250905080600d6000600a548152602001908152602001600020600082015181600001556020820151816001019080519060200190612a569291906152f9565b5060408201518160020160006101000a81548160ff021916908315150217905550606082015181600301556080820151816004015560a08201518160050160006101000a81548160ff02191690831515021790555060c0820151816006015560e0820151816007015561010082015181600801556101208201518160090160006101000a81548160ff02191690831515021790555061014082015181600a015561016082015181600b0160006101000a81548173ffffffffffffffffffffffffffffffffffffffff021916908373ffffffffffffffffffffffffffffffffffffffff1602179055509050506000600d6000858152602001908152602001600020600b0160006101000a81548173ffffffffffffffffffffffffffffffffffffffff021916908373ffffffffffffffffffffffffffffffffffffffff160217905550600a54915050979650505050505050565b606060078054600181600116156101000203166002900480601f016020809104026020016040519081016040528092919081815260200182805460018160011615610100020316600290048015612c405780601f10612c1557610100808354040283529160200191612c40565b820191906000526020600020905b815481529060010190602001808311612c2357829003601f168201915b5050505050905090565b6000823373ffffffffffffffffffffffffffffffffffffffff16612c6d82612233565b73ffffffffffffffffffffffffffffffffffffffff1614612cf6576040517f08c379a00000000000000000000000000000000000000000000000000000000081526004018080602001828103825260158152602001807f4f6e6c792074686520616e696d616c206f776e6572000000000000000000000081525060200191505060405180910390fd5b60008311612d0357600080fd5b6001600d600086815260200190815260200160002060090160006101000a81548160ff02191690831515021790555082600d6000868152602001908152602001600020600a01819055508391505092915050565b600e6020528060005260406000206000915054906101000a900460ff1681565b612d7f613dd4565b73ffffffffffffffffffffffffffffffffffffffff168273ffffffffffffffffffffffffffffffffffffffff161415612e20576040517f08c379a00000000000000000000000000000000000000000000000000000000081526004018080602001828103825260198152602001807f4552433732313a20617070726f766520746f2063616c6c65720000000000000081525060200191505060405180910390fd5b8060056000612e2d613dd4565b73ffffffffffffffffffffffffffffffffffffffff1673ffffffffffffffffffffffffffffffffffffffff16815260200190815260200160002060008473ffffffffffffffffffffffffffffffffffffffff1673ffffffffffffffffffffffffffffffffffffffff16815260200190815260200160002060006101000a81548160ff0219169083151502179055508173ffffffffffffffffffffffffffffffffffffffff16612eda613dd4565b73ffffffffffffffffffffffffffffffffffffffff167f17307eab39ab6107e8899845ad3d59bd9653f200f220920489ca2b5937696c3183604051808215151515815260200191505060405180910390a35050565b60606000806000600a54851115612fae576040517f08c379a000000000000000000000000000000000000000000000000000000000815260040180806020018281038252600c8152602001807f4964206e6f7420666f756e64000000000000000000000000000000000000000081525060200191505060405180910390fd5b60008511613024576040517f08c379a000000000000000000000000000000000000000000000000000000000815260040180806020018281038252600c8152602001807f4964206e6f7420666f756e64000000000000000000000000000000000000000081525060200191505060405180910390fd5b61302c61527c565b600d60008781526020019081526020016000206040518061018001604052908160008201548152602001600182018054600181600116156101000203166002900480601f0160208091040260200160405190810160405280929190818152602001828054600181600116156101000203166002900480156130ee5780601f106130c3576101008083540402835291602001916130ee565b820191906000526020600020905b8154815290600101906020018083116130d157829003601f168201915b505050505081526020016002820160009054906101000a900460ff1615151515815260200160038201548152602001600482015481526020016005820160009054906101000a900460ff161515151581526020016006820154815260200160078201548152602001600882015481526020016009820160009054906101000a900460ff16151515158152602001600a8201548152602001600b820160009054906101000a900473ffffffffffffffffffffffffffffffffffffffff1673ffffffffffffffffffffffffffffffffffffffff1673ffffffffffffffffffffffffffffffffffffffff1681525050905080602001518160400151826060015183608001518393509450945094509450509193509193565b61321461320e613dd4565b836140ed565b613269576040517f08c379a00000000000000000000000000000000000000000000000000000000081526004018080602001828103825260318152602001806156036031913960400191505060405180910390fd5b61327584848484614452565b50505050565b6000600d600083815260200190815260200160002060050160009054906101000a900460ff169050919050565b6000600e60008373ffffffffffffffffffffffffffffffffffffffff1673ffffffffffffffffffffffffffffffffffffffff16815260200190815260200160002060009054906101000a900460ff169050919050565b606061330982613db7565b61335e576040517f08c379a000000000000000000000000000000000000000000000000000000000815260040180806020018281038252602f8152602001806155b3602f913960400191505060405180910390fd5b6060600860008481526020019081526020016000208054600181600116156101000203166002900480601f0160208091040260200160405190810160405280929190818152602001828054600181600116156101000203166002900480156134075780601f106133dc57610100808354040283529160200191613407565b820191906000526020600020905b8154815290600101906020018083116133ea57829003601f168201915b505050505090506060613418612386565b905060008151141561342e5781925050506135ca565b6000825111156134ff5780826040516020018083805190602001908083835b60208310613470578051825260208201915060208101905060208303925061344d565b6001836020036101000a03801982511681845116808217855250505050505090500182805190602001908083835b602083106134c1578051825260208201915060208101905060208303925061349e565b6001836020036101000a03801982511681845116808217855250505050505090500192505050604051602081830303815290604052925050506135ca565b80613509856144c4565b6040516020018083805190602001908083835b6020831061353f578051825260208201915060208101905060208303925061351c565b6001836020036101000a03801982511681845116808217855250505050505090500182805190602001908083835b60208310613590578051825260208201915060208101905060208303925061356d565b6001836020036101000a03801982511681845116808217855250505050505090500192505050604051602081830303815290604052925050505b919050565b6000600560008473ffffffffffffffffffffffffffffffffffffffff1673ffffffffffffffffffffffffffffffffffffffff16815260200190815260200160002060008373ffffffffffffffffffffffffffffffffffffffff1673ffffffffffffffffffffffffffffffffffffffff16815260200190815260200160002060009054906101000a900460ff16905092915050565b6000600a54905090565b803373ffffffffffffffffffffffffffffffffffffffff1661368e82612233565b73ffffffffffffffffffffffffffffffffffffffff1614613717576040517f08c379a00000000000000000000000000000000000000000000000000000000081526004018080602001828103825260158152602001807f4f6e6c792074686520616e696d616c206f776e6572000000000000000000000081525060200191505060405180910390fd5b613720826145f4565b600d600083815260200190815260200160002060008082016000905560018201600061374c9190615379565b6002820160006101000a81549060ff0219169055600382016000905560048201600090556005820160006101000a81549060ff02191690556006820160009055600782016000905560088201600090556009820160006101000a81549060ff0219169055600a820160009055600b820160006101000a81549073ffffffffffffffffffffffffffffffffffffffff021916905550505050565b600d602052806000526040600020600091509050806000015490806001018054600181600116156101000203166002900480601f0160208091040260200160405190810160405280929190818152602001828054600181600116156101000203166002900480156138975780601f1061386c57610100808354040283529160200191613897565b820191906000526020600020905b81548152906001019060200180831161387a57829003601f168201915b5050505050908060020160009054906101000a900460ff16908060030154908060040154908060050160009054906101000a900460ff16908060060154908060070154908060080154908060090160009054906101000a900460ff169080600a01549080600b0160009054906101000a900473ffffffffffffffffffffffffffffffffffffffff1690508c565b61392c61527c565b600d60008381526020019081526020016000206040518061018001604052908160008201548152602001600182018054600181600116156101000203166002900480601f0160208091040260200160405190810160405280929190818152602001828054600181600116156101000203166002900480156139ee5780601f106139c3576101008083540402835291602001916139ee565b820191906000526020600020905b8154815290600101906020018083116139d157829003601f168201915b505050505081526020016002820160009054906101000a900460ff1615151515815260200160038201548152602001600482015481526020016005820160009054906101000a900460ff161515151581526020016006820154815260200160078201548152602001600882015481526020016009820160009054906101000a900460ff16151515158152602001600a8201548152602001600b820160009054906101000a900473ffffffffffffffffffffffffffffffffffffffff1673ffffffffffffffffffffffffffffffffffffffff1673ffffffffffffffffffffffffffffffffffffffff16815250509050806101200151613b54576040517f08c379a00000000000000000000000000000000000000000000000000000000081526004018080602001828103825260168152602001807f416e696d616c2063616e277420726570726f647563650000000000000000000081525060200191505060405180910390fd5b3481610140015114613bce576040517f08c379a000000000000000000000000000000000000000000000000000000000815260040180806020018281038252600c8152602001807f57726f6e6720616d6f756e74000000000000000000000000000000000000000081525060200191505060405180910390fd5b600073ffffffffffffffffffffffffffffffffffffffff1681610160015173ffffffffffffffffffffffffffffffffffffffff1614613c75576040517f08c379a00000000000000000000000000000000000000000000000000000000081526004018080602001828103825260178152602001807f416c726561647920696e20726570726f64756374696f6e00000000000000000081525060200191505060405180910390fd5b60006060613c8284612233565b73ffffffffffffffffffffffffffffffffffffffff163460405180600001905060006040518083038185875af1925050503d8060008114613cdf576040519150601f19603f3d011682016040523d82523d6000602084013e613ce4565b606091505b509150915081613d5c576040517f08c379a00000000000000000000000000000000000000000000000000000000081526004018080602001828103825260188152602001807f4661696c656420746f207472616e73666572204574686572000000000000000081525060200191505060405180910390fd5b33600d6000868152602001908152602001600020600b0160006101000a81548173ffffffffffffffffffffffffffffffffffffffff021916908373ffffffffffffffffffffffffffffffffffffffff16021790555050505050565b6000613dcd82600261472e90919063ffffffff16565b9050919050565b600033905090565b816004600083815260200190815260200160002060006101000a81548173ffffffffffffffffffffffffffffffffffffffff021916908373ffffffffffffffffffffffffffffffffffffffff160217905550808273ffffffffffffffffffffffffffffffffffffffff16613e4f83612233565b73ffffffffffffffffffffffffffffffffffffffff167f8c5be1e5ebec7d5bd14f71427d1e84f3dd0314c0f7b2291e5b200ac8c7c3b92560405160405180910390a45050565b6000613ea382600001614748565b9050919050565b8273ffffffffffffffffffffffffffffffffffffffff16613eca82612233565b73ffffffffffffffffffffffffffffffffffffffff1614613f36576040517f08c379a000000000000000000000000000000000000000000000000000000000815260040180806020018281038252602981526020018061558a6029913960400191505060405180910390fd5b600073ffffffffffffffffffffffffffffffffffffffff168273ffffffffffffffffffffffffffffffffffffffff161415613fbc576040517f08c379a000000000000000000000000000000000000000000000000000000000815260040180806020018281038252602481526020018061543b6024913960400191505060405180910390fd5b613fc7838383614759565b613fd2600082613ddc565b61402381600160008673ffffffffffffffffffffffffffffffffffffffff1673ffffffffffffffffffffffffffffffffffffffff16815260200190815260200160002061475e90919063ffffffff16565b5061407581600160008573ffffffffffffffffffffffffffffffffffffffff1673ffffffffffffffffffffffffffffffffffffffff16815260200190815260200160002061477890919063ffffffff16565b5061408c818360026147929092919063ffffffff16565b50808273ffffffffffffffffffffffffffffffffffffffff168473ffffffffffffffffffffffffffffffffffffffff167fddf252ad1be2c89b69c2b068fc378daa952ba7f163c4a11628f55a4df523b3ef60405160405180910390a4505050565b60006140f882613db7565b61414d576040517f08c379a000000000000000000000000000000000000000000000000000000000815260040180806020018281038252602c815260200180615485602c913960400191505060405180910390fd5b600061415883612233565b90508073ffffffffffffffffffffffffffffffffffffffff168473ffffffffffffffffffffffffffffffffffffffff1614806141c757508373ffffffffffffffffffffffffffffffffffffffff166141af84611457565b73ffffffffffffffffffffffffffffffffffffffff16145b806141d857506141d781856135cf565b5b91505092915050565b60006141f083600001836147c7565b60001c905092915050565b600073ffffffffffffffffffffffffffffffffffffffff168273ffffffffffffffffffffffffffffffffffffffff16141561429e576040517f08c379a00000000000000000000000000000000000000000000000000000000081526004018080602001828103825260208152602001807f4552433732313a206d696e7420746f20746865207a65726f206164647265737381525060200191505060405180910390fd5b6142a781613db7565b1561431a576040517f08c379a000000000000000000000000000000000000000000000000000000000815260040180806020018281038252601c8152602001807f4552433732313a20746f6b656e20616c7265616479206d696e7465640000000081525060200191505060405180910390fd5b61432660008383614759565b61437781600160008573ffffffffffffffffffffffffffffffffffffffff1673ffffffffffffffffffffffffffffffffffffffff16815260200190815260200160002061477890919063ffffffff16565b5061438e818360026147929092919063ffffffff16565b50808273ffffffffffffffffffffffffffffffffffffffff16600073ffffffffffffffffffffffffffffffffffffffff167fddf252ad1be2c89b69c2b068fc378daa952ba7f163c4a11628f55a4df523b3ef60405160405180910390a45050565b600080600080614402866000018661484a565b915091508160001c8160001c8090509350935050509250929050565b6000614431846000018460001b846148e3565b60001c90509392505050565b600061444b826000016149d9565b9050919050565b61445d848484613eaa565b614469848484846149ea565b6144be576040517f08c379a00000000000000000000000000000000000000000000000000000000081526004018080602001828103825260328152602001806154096032913960400191505060405180910390fd5b50505050565b6060600082141561450c576040518060400160405280600181526020017f300000000000000000000000000000000000000000000000000000000000000081525090506145ef565b600082905060005b60008214614536578080600101915050600a828161452e57fe5b049150614514565b6060816040519080825280601f01601f19166020018201604052801561456b5781602001600182028038833980820191505090505b50905060006001830390508593505b600084146145e757600a848161458c57fe5b0660300160f81b828280600190039350815181106145a657fe5b60200101907effffffffffffffffffffffffffffffffffffffffffffffffffffffffffffff1916908160001a905350600a84816145df57fe5b04935061457a565b819450505050505b919050565b60006145ff82612233565b905061460d81600084614759565b614618600083613ddc565b60006008600084815260200190815260200160002080546001816001161561010002031660029004905014614667576008600083815260200190815260200160002060006146669190615379565b5b6146b882600160008473ffffffffffffffffffffffffffffffffffffffff1673ffffffffffffffffffffffffffffffffffffffff16815260200190815260200160002061475e90919063ffffffff16565b506146cd826002614c2f90919063ffffffff16565b5081600073ffffffffffffffffffffffffffffffffffffffff168273ffffffffffffffffffffffffffffffffffffffff167fddf252ad1be2c89b69c2b068fc378daa952ba7f163c4a11628f55a4df523b3ef60405160405180910390a45050565b6000614740836000018360001b614c49565b905092915050565b600081600001805490509050919050565b505050565b6000614770836000018360001b614c6c565b905092915050565b600061478a836000018360001b614d54565b905092915050565b60006147be846000018460001b8473ffffffffffffffffffffffffffffffffffffffff1660001b614dc4565b90509392505050565b600081836000018054905011614828576040517f08c379a00000000000000000000000000000000000000000000000000000000081526004018080602001828103825260228152602001806153e76022913960400191505060405180910390fd5b82600001828154811061483757fe5b9060005260206000200154905092915050565b600080828460000180549050116148ac576040517f08c379a000000000000000000000000000000000000000000000000000000000815260040180806020018281038252602281526020018061553c6022913960400191505060405180910390fd5b60008460000184815481106148bd57fe5b906000526020600020906002020190508060000154816001015492509250509250929050565b600080846001016000858152602001908152602001600020549050600081141583906149aa576040517f08c379a00000000000000000000000000000000000000000000000000000000081526004018080602001828103825283818151815260200191508051906020019080838360005b8381101561496f578082015181840152602081019050614954565b50505050905090810190601f16801561499c5780820380516001836020036101000a031916815260200191505b509250505060405180910390fd5b508460000160018203815481106149bd57fe5b9060005260206000209060020201600101549150509392505050565b600081600001805490509050919050565b6000614a0b8473ffffffffffffffffffffffffffffffffffffffff16614ea0565b614a185760019050614c27565b6060614bae63150b7a0260e01b614a2d613dd4565b888787604051602401808573ffffffffffffffffffffffffffffffffffffffff1673ffffffffffffffffffffffffffffffffffffffff1681526020018473ffffffffffffffffffffffffffffffffffffffff1673ffffffffffffffffffffffffffffffffffffffff16815260200183815260200180602001828103825283818151815260200191508051906020019080838360005b83811015614add578082015181840152602081019050614ac2565b50505050905090810190601f168015614b0a5780820380516001836020036101000a031916815260200191505b5095505050505050604051602081830303815290604052907bffffffffffffffffffffffffffffffffffffffffffffffffffffffff19166020820180517bffffffffffffffffffffffffffffffffffffffffffffffffffffffff8381831617835250505050604051806060016040528060328152602001615409603291398773ffffffffffffffffffffffffffffffffffffffff16614eb39092919063ffffffff16565b90506000818060200190516020811015614bc757600080fd5b8101908080519060200190929190505050905063150b7a0260e01b7bffffffffffffffffffffffffffffffffffffffffffffffffffffffff1916817bffffffffffffffffffffffffffffffffffffffffffffffffffffffff191614925050505b949350505050565b6000614c41836000018360001b614ecb565b905092915050565b600080836001016000848152602001908152602001600020541415905092915050565b60008083600101600084815260200190815260200160002054905060008114614d485760006001820390506000600186600001805490500390506000866000018281548110614cb757fe5b9060005260206000200154905080876000018481548110614cd457fe5b9060005260206000200181905550600183018760010160008381526020019081526020016000208190555086600001805480614d0c57fe5b60019003818190600052602060002001600090559055866001016000878152602001908152602001600020600090556001945050505050614d4e565b60009150505b92915050565b6000614d608383614fe4565b614db9578260000182908060018154018082558091505060019003906000526020600020016000909190919091505582600001805490508360010160008481526020019081526020016000208190555060019050614dbe565b600090505b92915050565b6000808460010160008581526020019081526020016000205490506000811415614e6b57846000016040518060400160405280868152602001858152509080600181540180825580915050600190039060005260206000209060020201600090919091909150600082015181600001556020820151816001015550508460000180549050856001016000868152602001908152602001600020819055506001915050614e99565b82856000016001830381548110614e7e57fe5b90600052602060002090600202016001018190555060009150505b9392505050565b600080823b905060008111915050919050565b6060614ec28484600085615007565b90509392505050565b60008083600101600084815260200190815260200160002054905060008114614fd85760006001820390506000600186600001805490500390506000866000018281548110614f1657fe5b9060005260206000209060020201905080876000018481548110614f3657fe5b9060005260206000209060020201600082015481600001556001820154816001015590505060018301876001016000836000015481526020019081526020016000208190555086600001805480614f8957fe5b6001900381819060005260206000209060020201600080820160009055600182016000905550509055866001016000878152602001908152602001600020600090556001945050505050614fde565b60009150505b92915050565b600080836001016000848152602001908152602001600020541415905092915050565b606082471015615062576040517f08c379a000000000000000000000000000000000000000000000000000000000815260040180806020018281038252602681526020018061545f6026913960400191505060405180910390fd5b61506b85614ea0565b6150dd576040517f08c379a000000000000000000000000000000000000000000000000000000000815260040180806020018281038252601d8152602001807f416464726573733a2063616c6c20746f206e6f6e2d636f6e747261637400000081525060200191505060405180910390fd5b600060608673ffffffffffffffffffffffffffffffffffffffff1685876040518082805190602001908083835b6020831061512d578051825260208201915060208101905060208303925061510a565b6001836020036101000a03801982511681845116808217855250505050505090500191505060006040518083038185875af1925050503d806000811461518f576040519150601f19603f3d011682016040523d82523d6000602084013e615194565b606091505b50915091506151a48282866151b0565b92505050949350505050565b606083156151c057829050615275565b6000835111156151d35782518084602001fd5b816040517f08c379a00000000000000000000000000000000000000000000000000000000081526004018080602001828103825283818151815260200191508051906020019080838360005b8381101561523a57808201518184015260208101905061521f565b50505050905090810190601f1680156152675780820380516001836020036101000a031916815260200191505b509250505060405180910390fd5b9392505050565b6040518061018001604052806000815260200160608152602001600015158152602001600081526020016000815260200160001515815260200160008152602001600081526020016000815260200160001515815260200160008152602001600073ffffffffffffffffffffffffffffffffffffffff1681525090565b828054600181600116156101000203166002900490600052602060002090601f016020900481019282601f1061533a57805160ff1916838001178555615368565b82800160010185558215615368579182015b8281111561536757825182559160200191906001019061534c565b5b50905061537591906153c1565b5090565b50805460018160011615610100020316600290046000825580601f1061539f57506153be565b601f0160209004906000526020600020908101906153bd91906153c1565b5b50565b6153e391905b808211156153df5760008160009055506001016153c7565b5090565b9056fe456e756d657261626c655365743a20696e646578206f7574206f6620626f756e64734552433732313a207472616e7366657220746f206e6f6e20455243373231526563656976657220696d706c656d656e7465724552433732313a207472616e7366657220746f20746865207a65726f2061646472657373416464726573733a20696e73756666696369656e742062616c616e636520666f722063616c6c4552433732313a206f70657261746f7220717565727920666f72206e6f6e6578697374656e7420746f6b656e4552433732313a20617070726f76652063616c6c6572206973206e6f74206f776e6572206e6f7220617070726f76656420666f7220616c6c4552433732313a2062616c616e636520717565727920666f7220746865207a65726f20616464726573734552433732313a206f776e657220717565727920666f72206e6f6e6578697374656e7420746f6b656e456e756d657261626c654d61703a20696e646578206f7574206f6620626f756e64734552433732313a20617070726f76656420717565727920666f72206e6f6e6578697374656e7420746f6b656e4552433732313a207472616e73666572206f6620746f6b656e2074686174206973206e6f74206f776e4552433732314d657461646174613a2055524920717565727920666f72206e6f6e6578697374656e7420746f6b656e4552433732313a20617070726f76616c20746f2063757272656e74206f776e65724552433732313a207472616e736665722063616c6c6572206973206e6f74206f776e6572206e6f7220617070726f766564a264697066735822122014968cf113481ab6ea82abce3643d55dc4f98ad7bf5f42cfe1460f418353087464736f6c63430006020033",
  "source": "// SPDX-License-Identifier: MIT\r\npragma solidity ^0.6.0;\r\n\r\nimport \"@openzeppelin/contracts/token/ERC721/ERC721.sol\";\r\nimport \"./IExerciceSolution.sol\";\r\n\r\n\r\n\r\ncontract ERC721TD is ERC721 {\r\n\r\n    struct Animal {\r\n\t\tuint256 id;\r\n\t\tstring name;\r\n\t\tbool wings;\r\n\t\tuint legs; \r\n\t\tuint sex;\r\n\t\tbool isForSale;\r\n\t\tuint256 price;\r\n\t\tuint256 parent1;\r\n\t\tuint256 parent2;\r\n\t\tbool canReproduce;\r\n\t\tuint256 reproductionPrice;\r\n\t\taddress payable authorizedUser;\r\n\t}\r\n\r\n\tuint256 private _tokenNumber;\r\n\tuint256 private _priceToBecomeBreeder;\r\n\taddress private _owner;\r\n\tmapping(uint256 => Animal) public _tokens;\r\n\tmapping(address => bool) public _breeders;\r\n\r\n\tmodifier onlyBreeder(){\r\n\t    require(_breeders[msg.sender], \"Only a breeder\");\r\n\t    _;\r\n\t}\r\n\r\n\tmodifier onlyOwner(){\r\n\t    require(_owner == msg.sender, \"Only the contract owner\");\r\n\t    _;\r\n\t}\r\n\r\n\tmodifier onlyAnimalOwner(uint256 tokenId){\r\n\t    require(ownerOf(tokenId) == msg.sender, \"Only the animal owner\");\r\n\t    _;\r\n\t}\r\n\r\n\tconstructor(string memory _name, string memory _symbol) public ERC721(_name, _symbol){\r\n\t\t_tokenNumber = 0;\r\n\t\t_priceToBecomeBreeder = 0.1 ether;\r\n\t\t_owner = msg.sender;\r\n\t\t_breeders[_owner] = true;\r\n\t}\r\n\r\n\tfunction isBreeder(address account) external view returns (bool){\r\n\t\treturn _breeders[account];\r\n\t}\r\n\r\n\tfunction registrationPrice() external view returns (uint256){\r\n\t\treturn _priceToBecomeBreeder;\r\n\t}\r\n\r\n\tfunction registerMeAsBreeder() external\tpayable{\r\n\t\trequire(msg.value == _priceToBecomeBreeder, \"Wrong amount to become breeder\");\r\n\t\t_breeders[msg.sender] = true;\r\n\t}\r\n/////hgcyjvhkbjnk\r\n\tfunction registerExtraBreeder(address breeder) external\tonlyOwner{\r\n\t\t_breeders[breeder] = true;\r\n\t}\r\n\r\n\tfunction declareAnimal(uint sex, uint legs, bool wings, string calldata name) external onlyBreeder returns (uint256){\r\n\t\t_tokenNumber++;\r\n\t\t_mint(msg.sender, _tokenNumber);\r\n\t\tAnimal memory newAnimal = Animal(_tokenNumber, name, wings, legs, sex, false, 0, 0, 0, false, 0, address(0));\r\n\t\t_tokens[_tokenNumber] = newAnimal;\r\n\t\treturn _tokenNumber;\r\n\t}\r\n\r\n\tfunction getAnimalCharacteristics(uint animalNumber) external view returns (string memory _name, bool _wings, uint _legs, uint _sex){\r\n\t\trequire(animalNumber <= _tokenNumber, \"Id not found\");\r\n\t\trequire(animalNumber > 0, \"Id not found\");\r\n\t\tAnimal memory animal = _tokens[animalNumber];\r\n\t\treturn (animal.name, animal.wings, animal.legs, animal.sex);\r\n\t}\r\n\r\n\tfunction declareDeadAnimal(uint animalNumber) external onlyAnimalOwner(animalNumber){\r\n\t\t_burn(animalNumber);\r\n\t\tdelete _tokens[animalNumber];\r\n\t}\r\n//function tokenOfOwnerByIndex\r\n\r\n\t// Selling functions\r\n\r\n\tfunction isAnimalForSale(uint animalNumber) external view returns (bool){\r\n\t\treturn _tokens[animalNumber].isForSale;\r\n\t}\r\n\r\n\tfunction animalPrice(uint animalNumber) external view returns (uint256){\r\n\t\treturn _tokens[animalNumber].price;\r\n\t}\r\n\r\n\tfunction buyAnimal(uint animalNumber) external payable{\r\n\t\tAnimal memory animal = _tokens[animalNumber];\r\n\r\n\t\trequire(animal.isForSale, \"Animal is not for sale\");\r\n\t\trequire(msg.value == animal.price);\r\n\r\n\t\taddress animalOwner = ownerOf(animalNumber);\r\n\r\n\t\t//give eth to current owner\r\n\t\t(bool sent, bytes memory data) = animalOwner.call{value: msg.value}(\"\");\r\n\t\trequire(sent, \"Failed to transfer Ether\");\r\n\r\n\t\t//transfer token to new owner\r\n\t\t_transfer(animalOwner, msg.sender, animalNumber);\r\n\r\n\t\t//reset sale\r\n\t\t_tokens[animalNumber].isForSale = false;\r\n\t\t_tokens[animalNumber].price = 0;\r\n\t}\r\n\r\n\tfunction offerForSale(uint animalNumber, uint price) external onlyAnimalOwner(animalNumber){\r\n\t\t_tokens[animalNumber].isForSale = true;\r\n\t\t_tokens[animalNumber].price = price;\r\n\t}\r\n//fyrhcvgyjkhuij\r\n\tfunction lastMintedToken() external view returns (uint256){\r\n\t\treturn _tokenNumber;\r\n\t}\r\n\r\n\t// Reproduction functions\r\n\r\n\tfunction declareAnimalWithParents(uint sex, uint legs, bool wings, string calldata name, uint parent1, uint parent2) external onlyBreeder returns (uint256){\r\n\t\trequire(msg.sender == this.authorizedBreederToReproduce(parent2), \"User not allowed to reproduce\");\r\n\t\trequire(ownerOf(parent1) != address(0), \"Parent 1 no exist\");\r\n\t\trequire(ownerOf(parent2) != address(0), \"Parent 2 no exist\");\r\n\t\t_tokenNumber++;\r\n\t\t_mint(msg.sender, _tokenNumber);\r\n\t\tAnimal memory newAnimal = Animal(_tokenNumber, name, wings, legs, sex, false, 0, parent1, parent2, false, 0, address(0));\r\n\t\t_tokens[_tokenNumber] = newAnimal;\r\n\r\n\t\t_tokens[parent2].authorizedUser = address(0);\r\n\r\n\t\treturn _tokenNumber;\r\n\t}\r\n\r\n\tfunction getParents(uint animalNumber) external view returns (uint256, uint256){\r\n\t\tAnimal memory animal = _tokens[animalNumber];\r\n\t\treturn (animal.parent1, animal.parent2);\r\n\t}\r\n\r\n\tfunction canReproduce(uint animalNumber) external view returns (bool){\r\n\t\treturn _tokens[animalNumber].canReproduce;\r\n\t}\r\n\r\n\tfunction reproductionPrice(uint animalNumber) external view\treturns (uint256){\r\n\t\treturn _tokens[animalNumber].reproductionPrice;\r\n\t}\r\n\r\n\tfunction offerForReproduction(uint animalNumber, uint priceOfReproduction) external onlyAnimalOwner(animalNumber) returns (uint256){\r\n\t\trequire(priceOfReproduction > 0);\r\n\t\t_tokens[animalNumber].canReproduce = true;\r\n\t\t_tokens[animalNumber].reproductionPrice = priceOfReproduction;\r\n\t\treturn animalNumber;\r\n\t}\r\n\r\n\tfunction authorizedBreederToReproduce(uint animalNumber) external view returns (address){\r\n\t\treturn _tokens[animalNumber].authorizedUser;\r\n\t}\r\n//yrxcthvjybjn\r\n\tfunction authorizedExtraBreederToReproduce(uint animalNumber, address payable breeder) external onlyOwner{\r\n\t\t_tokens[animalNumber].authorizedUser = breeder;\r\n\t}\r\n\r\n\tfunction payForReproduction(uint animalNumber) external payable{\r\n\t\tAnimal memory animal = _tokens[animalNumber];\r\n\t\trequire(animal.canReproduce, \"Animal can't reproduce\");\r\n\t\trequire(animal.reproductionPrice == msg.value , \"Wrong amount\");\r\n\t\trequire(animal.authorizedUser == address(0) , \"Already in reproduction\");\r\n\r\n\t\t(bool sent, bytes memory data) = ownerOf(animalNumber).call{value: msg.value}(\"\");\r\n\t\trequire(sent, \"Failed to transfer Ether\");\r\n\r\n\t\t_tokens[animalNumber].authorizedUser = msg.sender;\r\n\t}    \r\n}",
  "sourcePath": "C:\\Github\\BP-TD5\\contracts\\ERC721TD.sol",
  "compiler": {
    "name": "solc",
    "version": "0.6.2+commit.bacdbe57.Emscripten.clang"
  },
  "schemaVersion": "3.4.3",
  "updatedAt": "2021-12-10T11:02:25.821Z",
  "devdoc": {
    "methods": {
      "approve(address,uint256)": {
        "details": "See {IERC721-approve}."
      },
      "balanceOf(address)": {
        "details": "See {IERC721-balanceOf}."
      },
      "baseURI()": {
        "details": "Returns the base URI set via {_setBaseURI}. This will be automatically added as a prefix in {tokenURI} to each token's URI, or to the token ID if no specific URI is set for that token ID."
      },
      "getApproved(uint256)": {
        "details": "See {IERC721-getApproved}."
      },
      "isApprovedForAll(address,address)": {
        "details": "See {IERC721-isApprovedForAll}."
      },
      "name()": {
        "details": "See {IERC721Metadata-name}."
      },
      "ownerOf(uint256)": {
        "details": "See {IERC721-ownerOf}."
      },
      "safeTransferFrom(address,address,uint256)": {
        "details": "See {IERC721-safeTransferFrom}."
      },
      "safeTransferFrom(address,address,uint256,bytes)": {
        "details": "See {IERC721-safeTransferFrom}."
      },
      "setApprovalForAll(address,bool)": {
        "details": "See {IERC721-setApprovalForAll}."
      },
      "supportsInterface(bytes4)": {
        "details": "See {IERC165-supportsInterface}.     * Time complexity O(1), guaranteed to always use less than 30 000 gas."
      },
      "symbol()": {
        "details": "See {IERC721Metadata-symbol}."
      },
      "tokenByIndex(uint256)": {
        "details": "See {IERC721Enumerable-tokenByIndex}."
      },
      "tokenOfOwnerByIndex(address,uint256)": {
        "details": "See {IERC721Enumerable-tokenOfOwnerByIndex}."
      },
      "tokenURI(uint256)": {
        "details": "See {IERC721Metadata-tokenURI}."
      },
      "totalSupply()": {
        "details": "See {IERC721Enumerable-totalSupply}."
      },
      "transferFrom(address,address,uint256)": {
        "details": "See {IERC721-transferFrom}."
      }
    }
  },
  "userdoc": {
    "methods": {
      "registerExtraBreeder(address)": {
        "notice": "//hgcyjvhkbjnk"
      }
    }
  }
}